:020000040000FA
:10000000406A0020D949000043430200AD49000086
:10001000AD490000AD490000AD49000000000000FE
:100020000000000000000000000000002944000063
:10003000AD49000000000000D54300003F8B0200E6
:10004000D9440000E77C0200D9440000D9440000F4
:10005000D9440000D9440000D9440000D94400002C
:10006000D9440000D9440000D9440000D94400001C
:10007000D9440000D9440000D9440000D94400000C
:10008000D9440000D9440000D9440000D9440000FC
:10009000D9440000D9440000D9440000D9440000EC
:1000A000D9440000D9440000D9440000D9440000DC
:1000B000D9440000D9440000D9440000D9440000CC
:1000C000D9440000D9440000D9440000D9440000BC
:1000D000D9440000D9440000D9440000D9440000AC
:1000E000D9440000D9440000D9440000D94400009C
:1000F000D9440000D9440000D9440000D94400008C
:1001000053B94AB9002908BF00281CBF4FF0FF317E
:100110004FF0FF3000F088B9ADF1080C6DE904CE66
:1001200000F01AF8DDF804E0DDE9022304B07047BE
:10013000430803F05533C01A830803F0333300F04B
:100140003330184400EB101000F00F3000EB0020AB
:1001500000EB0040000E70472DE9F047089E0D4669
:1001600004468846002B4DD18A42944668D9B2FA9B
:1001700082F252B101FA02F3C2F1200120FA01F138
:100180000CFA02FC41EA030894404FEA1C45210C9A
:10019000B8FBF5FE1FFA8CF705FB1E8341EA03430B
:1001A0000EFB07F199420BD91CEB03030EF1FF3054
:1001B00080F01E81994240F21B81AEF1020E634431
:1001C0005B1AA4B2B3FBF5F005FB103344EA034419
:1001D00000FB07F7A7420AD91CEB040400F1FF3328
:1001E00080F00881A74240F2058164440238E41B94
:1001F00040EA0E4000211EB1D4400023C6E900436E
:10020000BDE8F0878B4208D9002E00F0EE80002177
:10021000C6E900050846BDE8F087B3FA83F1002976
:100220004AD1AB4202D3824200F2F980841A65EBD4
:10023000030301209846002EE2D0C6E90048DFE71C
:1002400002B9FFDEB2FA82F2002A40F09180A1EBFF
:100250000C054FEA1C471FFA8CFE0121B5FBF7F392
:1002600007FB1350250C45EA00450EFB03F0A8429E
:1002700008D91CEB050503F1FF3802D2A84200F2B1
:10028000CB8043462D1AA4B2B5FBF7F007FB1055FF
:1002900044EA05440EFB00FEA64508D91CEB040405
:1002A00000F1FF3502D2A64500F2BB802846A4EB40
:1002B0000E0440EA03409EE7C1F120078B4022FA7A
:1002C00007FC4CEA030C20FA07F405FA01F31C437F
:1002D000FD404FEA1C4900FA01F3B5FBF9F8200C88
:1002E0001FFA8CFE09FB185540EA054508FB0EF085
:1002F000A84202FA01F20BD91CEB050508F1FF3AFE
:1003000080F08880A84240F28580A8F10208654408
:100310002D1AA4B2B5FBF9F009FB105544EA0545C6
:1003200000FB0EFEAE4508D91CEB050500F1FF34BD
:100330006CD2AE456AD90238654440EA0840A0FB59
:100340000294A5EB0E05A542C846A64656D353D047
:100350005EB1B3EB080265EB0E0505FA07F722FA6A
:1003600001F3CD401F43C6E900750021BDE8F087C9
:10037000C2F1200320FA03F10CFA02FC25FA03F380
:1003800095400D434FEA1C471FFA8CFEB3FBF7F173
:1003900007FB11302B0C43EA004301FB0EF098429F
:1003A00004FA02F408D91CEB030301F1FF382FD241
:1003B00098422DD9023963441B1AADB2B3FBF7F052
:1003C00007FB103345EA034500FB0EF3AB4208D9A7
:1003D0001CEB050500F1FF3816D2AB4214D90238E8
:1003E0006544ED1A40EA014138E73146304607E7F7
:1003F0008646E5E61846FAE64B45A9D2B9EB02086F
:1004000064EB0C0E0138A3E74046EAE7204694E788
:100410004146D1E7D0467BE7023B654432E70846D8
:1004200009E76444023842E7704700BF000000005B
:100430002DE9F8430346D0E90A801E6B184D841954
:100440003034A0451746894613A3D3E9002315D8B5
:10045000A0FB0501FFF754FE20F07F40C9F8000023
:10046000A4EB08000CA3D3E90023A0FB0501FFF7D0
:1004700047FE20F07F403860BDE8F883A8FB050107
:10048000FFF73EFE20F07F40C9F8000006F1300083
:10049000E8E700BFAFF300808D49FD1A07000000B8
:1004A00000CA9A3B000000002DE9F04F8FB020B940
:1004B0000FB0BDE8F04F19F019BCBF4D95F86A7048
:1004C00017F0010740F0708195F8293005EB8303A0
:1004D000D3F82C9095F8353005EB8303D3F838B07A
:1004E000B9F1000F14D04C46394614F8020BC0F392
:1004F000801017F031F906220146204623F0F6FF5E
:1005000099F800305A060DD4AB48594627F073F9D4
:1005100099F8003013F00E0F40F0A2802B6A4BB117
:100520000C2799E00621204626F0C0FD0028EBD1DB
:10053000122791E018F0BAFD804630B118F0C2FDE4
:10054000824620B9404618F0B7FD072784E019F02D
:1005500083FE044618B9504618F0BAFDF2E74FF68C
:10056000FF720285826E00F11C0312B900F1600275
:10057000826604F15C0204F15801A06E0B9326F030
:10058000A0FD94F86E2022F0070284F86E2094F803
:10059000392002F03F0262F07F0284F8392094F89B
:1005A0003C2022F0070284F83C200622A4F87020A8
:1005B00094F87C20002622F0070284F87C20C4E90D
:1005C0001266A666A4F86C60E685266384F83B6034
:1005D0002665A4F87460A4F87860A4F8886084F8AC
:1005E0008A60C4F89860A4F89C60A4F8B06027F012
:1005F00086F894F8CA200B9B2B6222F0030284F841
:10060000CA2094F8F620A4F8C860C4E92E0166F365
:10061000451200200021C5E9188AC4E93001C4E967
:100620004A66C4E94866C4E90566A4F8D06084F85F
:10063000D360C4F8D480A4F8F46084F8F620C4F839
:100640008460C4F81C612670E4611BF045FC38B17D
:10065000594819F0F1F8032738460FB0BDE8F08F7C
:1006600095F824300121C3F342030DF133008DF8D6
:10067000333026F052FD0246002800F08D809BF8B2
:100680000110484627F06DF84C49ED6100243123F4
:10069000C5E90234A0FB010145A3D3E90023C5E964
:1006A00005442C706C60FFF72BFDB5F8688028615D
:1006B00026F0D2FF0646B8F1000F06D199F80040A7
:1006C00004F00F04631E5C425C4195F824902B6992
:1006D000DFF8ECB03B4A64F3000985F824904FF052
:1006E000020A19F001090DACCDF834A031D0002078
:1006F000CDE90525CDE9000304930321CDE907B435
:10070000CDE902003346524626F073FF214618F029
:10071000F3FD002840D12C4A06954AF2D833CDE9A2
:1007200004020093CDE907B4CDE9020001903346FD
:1007300001220321CDF834A026F05BFF214618F0FA
:10074000DBFD48BB95F86A3043F0010385F86A3059
:1007500082E71E4903F2471008601D48CDE90432C4
:10076000CDE908414FF0910CA8FB00014FF6FF7353
:10077000CDE902930CFB08110DA3D3E90023CDE9C9
:10078000065BFFF7BDFC3346CDE9009052460321DE
:10079000484616F00DFFD1E72B6A002B3FF4C0AEA0
:1007A000054819F049F8BBE6002755E7AFF300808C
:1007B0008D49FD1A070000004440002000CA9A3B02
:1007C000418B0100019A010039970100B0400020DF
:1007D000002AE7840000000070B590F824308AB049
:1007E000C3F342030D46044601210DF123001646D2
:1007F0008DF8233026F091FC71780246284626F0C9
:10080000B0FF1D491AA3D3E90023A0FB0101FFF7A4
:1008100077FC216905468D421FD2481B0021174AEB
:1008200002230993A21A6C23B2FBF3F2144B059333
:1008300009AE00230232CDE90110CDE903330321D3
:1008400006960093D2B2184626F0EEFE314618F016
:1008500053FD40B925610AB070BD02D9691A002064
:10086000DDE70020F7E70C20F5E700BFAFF30080DD
:100870008D49FD1A0700000000CA9A3B4440002041
:10088000418B0100000000002DE9F047044690F87C
:10089000300094F820303E4FC0F3400060F38613E0
:1008A0008CB084F8203004F1210116F055FF268D1C
:1008B00094F82030E4610025A6FB07014FF0910C6D
:1008C00003F079030CFB0611C4E9055584F82030C8
:1008D00025702DA3D3E90023FFF712FC3123C4E9CF
:1008E0000235E36A65600933A0F13102934232BFF9
:1008F00023612561E562274D064626F0ADFE022301
:100900000B93651B3423B5FBF3F5234BB4F828C0D8
:10091000CDE90643B846214B059307462369049366
:10092000ACFB080891214FF0000901FB0C810DF18F
:100930002C0A15A3D3E90023CDF820A0CDF80C9004
:10094000FFF7DEFB104619464FF47A720023FFF7DB
:10095000D7FB0435EDB2CDE901600321CDF800905D
:100960003B462A46484626F044FE514618F0C4FC51
:1009700040B994F8303043F0010384F830300CB0C3
:10098000BDE8F0870C20FAE78D49FD1A070000004A
:10099000002AE784D4400020418B01004D9E0100D5
:1009A000F8B50446002016461F4619F0CBFA054656
:1009B00020B390F83030018567F3420380F830307F
:1009C0009DF818306401DB0003F0180304F02004E4
:1009D0001C4390F8203023F038031C4380F820405B
:1009E00009489124A6FB000105A3D3E9002304FBD9
:1009F0000611FFF785FBE8620020F8BD0C20FCE73C
:100A00008D49FD1A07000000002AE784000000005D
:100A10002DE9F04F914690F8883090F88920934264
:100A20008DB004460F460BD190F89D1090F89C2095
:100A30008A4225D00122023B80F88A2080F8893042
:100A400094F8883094F889209A1A02F00302022A56
:100A500040F06E8294F88A00012800F01482022887
:100A600000F03084CC4ACD49CD4840F23D4321F0DE
:100A700084F8404080F311884FF0030002DF57E212
:100A800090F8B13090F8B02093425BD09B1ADA070F
:100A9000D6D590F87C1011F0010826D018F0CAFBCA
:100AA00005460028CCD094F8B03084F8B130238DBE
:100AB000C38003230371037F43F00303037700F133
:100AC000200609234377C37708220021304623F00C
:100AD00018FDD4E93001324626F08CFF294608681B
:100AE00018F0FCFA18F004FBAAE7AE4826F099FAD1
:100AF00005460028A4D094F8B130013B84F8B13009
:100B0000037943F0030303710923437194F93930E6
:100B1000002BACBF08230E2300F10806C371082286
:100B20004146304623F0EDFCD4E92E01324626F052
:100B300061FF2946204626F06EFFB4F87630A4F80F
:100B400078307DE790F8C93090F8C820934260D0A3
:100B50009B1ADB077FF574AF90F8CA30DE0725D407
:100B6000904826F05EFA014600283FF469AF94F8F9
:100B7000C930013B84F8C93094F8CA3043F001030E
:100B800084F8CA30037943F00303037106234371E9
:100B90000C23C3710B2303726FF00E034372052302
:100BA00083724FF0FF33C3720373C3E79D0722D5EF
:100BB00018F040FB014600283FF442AF94F8C830DB
:100BC00084F8C930238DC38003230371037F43F06E
:100BD00003030377062343770C23C37794F8CB30C2
:100BE00080F82030B4F8CC30A0F82130B4F8CE3002
:100BF000A0F8233073E740F61853674A67496848FE
:100C000020F0BBFF404080F311884FF0030002DF6B
:100C100016E790F8F52090F8F4309A423FF410AFC0
:100C2000614D2B6813B198427FF40AAF94F8F63007
:100C300003F00F03062B00F2238101A252F823F0E8
:100C40005D0C0000E10C0000370E0000410A0000BE
:100C5000410A0000410A0000410A00005148668E26
:100C6000B4F82E8026F0DDF9014600283FF4E8AE06
:100C700003792C6043F003030371182343710F239E
:100C8000C371B4F8F8300381B4F8FA304381B4F892
:100C9000FC308381B4F8FE30C38100230374C37435
:100CA000037546444FF0FF3343758375C375037670
:100CB00043768376C3760377437783774E44B4F8DD
:100CC0007630A4F87830A0F8116094F8F630042259
:100CD00062F3030384F8F630204626F09CFEAFE66C
:100CE00094F8F730EBB12F4826F09BF90146002825
:100CF0003FF4A6AE037943F0030303711123C371DC
:100D0000032343710F23037294F8F7304372204694
:100D100026F081FE94F8F43084F8F53000232B603F
:100D20008EE694F93920002A40DB94F8F620C4F8C6
:100D3000A830062060F3030294F8000184F8F6203E
:100D4000012284F8AC20B4F8FA2048B1B2FBF0F3E9
:100D500013FB00F3B4F8F8009BB2984298BF1A4610
:100D6000B4F8FC30A4F8A230B4F8FE30A4F8A430F3
:100D700094F8F630A4F8A020C3F3001394F89E2052
:100D8000DB0043F0020322F00F021343013984F821
:100D90009E3084F89D1053E6D2FD02006AD1020015
:100DA0000EBA0200B04100201C410020674826F026
:100DB00038F9014600283FF443AE037943F00303BA
:100DC0000371182343711023C371B4F8F830038101
:100DD000B4F8FA304381B4F8FC308381B4F8FE30C3
:100DE000C38194F800310374B4F80231A0F81130D3
:100DF000B4F80431A0F81330B4F80631A0F8153077
:100E0000B4F80831A0F81730B4F80A31A0F8193056
:100E1000B4F80C31A0F81B30B4F80E31A0F81D3036
:100E2000204626F0F8FD94F8F630052262F303031D
:100E300084F8F63004E618F0FDF9014600283FF486
:100E4000FFAD94F8F620032363F3030284F8F62041
:100E5000228D0371037FC28043F0030303771823BD
:100E600043770F23C377B4F8F8300384B4F8FA302B
:100E70004384B4F8FC308384B4F8FE30C3842EE697
:100E800040F64963B9E6E28DB4F83280904494F8B4
:100E90009E20C84412F007011FFA88F858D018F0B5
:100EA000B1F90646002843D0284826F0BAF805468E
:100EB00000283DD0204619F051F818F0BBF93368EE
:100EC000D4F898205A602B79C4F8986043F0030353
:100ED0002B7100220C236B71EA7194F8AC302B72E9
:100EE00040F2E241D4F8A830B3FBF1F3A5F80930A1
:100EF000B4F8A030A5F80B30B4F8A230A5F80D3046
:100F0000B4F8A430A5F80F3094F89E3062F30203D1
:100F100084F89E30A38D984408F106081FFA88F8DB
:100F2000A4F88C80A5F811802946204626F073FD90
:100F300094F8D03094F8D1209B1ADBB2012B00F04A
:100F4000118200200DB0BDE8F08F00BFB04100203D
:100F5000B4F88CA0A8EB0A0210041FFA82FBE7D4B5
:100F600084F8893094F89C3094F8F42084F89D300B
:100F700094F8F530934209D094F8F63003F00F035B
:100F8000062B04BF84F8F520A4F87810C04BD4F8E1
:100F900098501A68944204BF00221A600DB12B6861
:100FA00063B9BC4ABC49BD4840F69F2320F0E5FD2B
:100FB000404080F311884FF0030002DF2868B4F846
:100FC000A0204368C4F89830638DB4F8A260B4F8E8
:100FD000A4109A4213D1A38DB34210D140F2E24340
:100FE00003FB02FC42F2107303FB01C3013BB3FBA2
:100FF000FCF3B4F872C09BB29C4500F02181238DB4
:10100000EB8018232B7100232B77EA832E846984CD
:10101000294618F063F818F06BF8A368002B09DA7A
:10102000E068626823F0004390422CBF3F18BF186D
:10103000A360FF1A608DB4F8A060994D10FB0BF00F
:1010400080B2B0FBF6F293B20B9316FB02F39BB2A5
:10105000984240F2E24180F0F680181A48438AA391
:10106000D3E90023A0FB0501FFF74AF820F07F40F9
:1010700007440B9BE28DAAEB080A9A4494F9393095
:101080009144CA4440F2E248002BA4F82EA008FB89
:1010900006F980F2E580226CA36C02FB1B33A3648B
:1010A00026F082FE064694F87C00C0F3C2001AF0D7
:1010B00061FF94F8AC20064409FB06F608FB02F237
:1010C00006F574267748226506F23F260022B6FB15
:1010D000F0F60B98C4F88420A26C266470434FEAA3
:1010E0005903963B024463649A4294BFA264A3648A
:1010F000A0FB050164A3D3E90023FFF701F83F1A21
:10110000D4F8A800B0FBF8F008FB00F05EA3D3E928
:101110000023A0FB0501FEF7F3FFA9EB060620F074
:101120007F48B4F8A0306385B4F8A230A385B4F842
:10113000A43042F2107202FB0393013BB3FBF9F3BC
:10114000A4F87230584B4B44B3FBF9F3A4F8763053
:1011500094F89E30190744BF0023A4F8743002218C
:1011600001201CF029FD002202218246012015F0F9
:10117000CBFC204619F07CF800F105095FFA89F9EB
:101180004A4B00944A460121002016F0ABFA30F099
:1011900002030CD03F4A4649404840F64A3320F00B
:1011A000ECFC404080F311884FF0030002DFA6FB07
:1011B000056535A3D3E9002330462946FEF7A0FF95
:1011C0003C4B0894CDE906433B4B059323690493BC
:1011D00020F07F4439484FF6FE730393A4FB0001CF
:1011E0000723301A03FB041165EB01014FF47A72F7
:1011F0000023FEF785FF3B46CDE90140CDF8008096
:101200004A460121002026F0F4F930F002030CD008
:10121000204A2749214840F6643320F0AEFC404084
:1012200080F311884FF0030002DFBAF1000F04D001
:1012300001220221104615F067FC6FF08B0081E659
:1012400001232B71E4E606FB120080B248430EA393
:10125000D3E90023A0FB0501FEF752FF3F1A08E780
:101260000C4A17490D4840F61B3320F086FC4040DD
:1012700080F311884FF0030002DF4FF000084E4664
:101280004FE700BFAFF300808D49FD1A0700000053
:101290001C410020D2FD02009CFE02000EBA02009A
:1012A00000CA9A3B40420F00FF596202ADA1010003
:1012B000AFFE020055A10100B9B301008D49FD1A2E
:1012C0006AD10200628EE18D0A44914494F88C2028
:1012D000D2071FFA89F925D5364825F0A2FE054622
:1012E00000283FF425AE94F88C306FF3000384F8A7
:1012F0008C30A38D9944037909F1060943F0030367
:10130000A4F892900371082343710123C37105224D
:1013100004F18D01083023F0E9F8B4F89230A5F813
:101320000D3001E6B4F89220A9EB020919F4004F40
:101330007FF4FEAD04F1340584F88930052204F110
:101340008D01284623F0D2F80521284625F0E5FE38
:1013500094F8393060F3050384F83930012384F8B8
:101360003031E5E5134825F05CFE014688B194F87C
:10137000D130013B84F8D130037943F0030303718A
:1013800002234371C37194F8D2300372204626F0D1
:1013900042FBB4F8780000287FF4D3ADB4F8723083
:1013A000012B02D9A4F87830CBE50133A4F87830CA
:1013B000C8E500BFB04100202DE9F04F0B68D3F81D
:1013C00000A0037F93B0174615460446C3F380136D
:1013D0000622894600F11E0110A80C9357F8086BED
:1013E00023F084F8062210A90EA823F07FF82146E6
:1013F000032251F82EBB384623F078F82B1D1846EF
:1014000005F11807042204F12A010A9323F06EF86B
:10141000052204F13A01384623F068F805213846E0
:1014200025F07BFE6A7F00F03F0060F305026A77DB
:1014300094F83F20C2F30401A977A18EE981012825
:1014400002F01F028FB206D91B3202F01F020B2AD4
:1014500001D80A9B9FB995F82030002262F300035F
:10146000CAF8142085F820300123237121465846FC
:1014700017F034FE17F03CFE13B0BDE8F08FD9F83A
:1014800000200D934FF00008C2F8048094F8371044
:1014900094F8362042EA01222A8294F83F2096F8F6
:1014A0007C10638E0B93520962F3C50140F2E24354
:1014B00086F87C105F4326F077FC0A9096F87C0053
:1014C000C0F3C2001AF056FD0A9A1044784300F5A2
:1014D0007420774A00F23F20B0FBF2F07A08963A87
:1014E000AA6294F83120686240F2E2435A43AA6348
:1014F000228F0A92BDF828200D9B42F2107101FB49
:101500000272013AB2FBF7F2A6F87220694A194654
:101510003A4406F18000B2FBF7F2A6F876200422E6
:1015200022F0E4FF9DF83020A2774FF48073A3836C
:101530000EA9062204F11F0022F0D8FFEB89E384F4
:101540002B8A238596F87C30BDF828206285C3F36A
:10155000C20384F82C30304618F08AFE2146A88158
:10156000E080584617F0BAFD17F0C2FD41464046EC
:1015700026F0EEFB504CC6F804808346312300F27F
:101580005240C6E90238A0FB040147A3D3E9002377
:10159000FEF7B6FD0B9AD9F80C3020F07F4040F2F0
:1015A000E24101FB02333061686A03F2B241424614
:1015B0003F1AA1EB0B0B0120022115F0A5FA5046B2
:1015C00018F072FB821C3D4BCDF800A0D2B2012175
:1015D000404616F087F8514619F0D2FE9AF82430AA
:1015E000DB0707D50122CDF800804346114640466F
:1015F00016F078F8304618F03BFEA7FB04782AA3D3
:10160000D3E90023054641463846FEF779FDD9F86F
:101610000830A3F13A0940F2AB130893284BCDE907
:101620000663284B05933369049320F07F462648D0
:101630000723A6FB0001381A03FB061168EB010122
:101640004FF0000A4FF47A720023CDF80CA0FEF799
:1016500057FD15A3D3E90023CDE90160ABFB0401DD
:10166000FEF74EFD053520F07F40EDB200904B4671
:101670002A460121504625F0BCFF30F002030CD071
:10168000124A134913484FF4D67320F076FA4040BB
:1016900080F311884FF0030002DF0122022110467F
:1016A00015F032FAE8E600BF8D49FD1A0700000088
:1016B00040420F00FF59620200CA9A3B81B3010009
:1016C00055B30100B9B301008D49FD1A5EFF020058
:1016D000AFFE02000EBA02002DE9F04F8FB0DFF826
:1016E000D8800A900DF137010DF1360026F02AF866
:1016F000324F9DF836A09DF837B025F0ADFFD8F8F1
:101700000040A4FB07542AA3D3E9002381462146C5
:101710002846FEF7F5FC0A9B0B90D8F804000693C8
:10172000274B0593002622A3D3E90023A0FB070142
:10173000CDE90766FEF7E4FC0B9B20F07F40CDE986
:101740000360204823F07F47A7FB00010723281AE6
:1017500003FB071164EB01014FF47A720023FEF7DB
:10176000CFFC0096CDE901704B465A460321504606
:1017700025F03FFF30F0020416D1134A134800232E
:101780001EF0FEFC68B19DF837209DF836000094ED
:101790002346032115F0A6FF6FF073000FB0BDE8DC
:1017A000F08FD8F80C00F9E76FF08B00F6E700BF78
:1017B0008D49FD1A07000000AC45002000CA9A3B85
:1017C00069EB01008D49FD1A447B0B00BC450020EC
:1017D00038B50F4D044625F03FFFA96825F03EFFC0
:1017E0006968B0FBF4F404440A4807A3D3E9002372
:1017F000A1FB0001FEF784FC20F07F40844294BFEF
:101800000020012038BD00BF8D49FD1A07000000EF
:10181000AC45002000CA9A3B2DE9F0411046144621
:1018200026F0F7FEA388144E0546EBB1204626F0BD
:10183000F0FE0746204626F0ECFE00F03F033F2B6B
:10184000C0F387111CBF0D4A52F8210056F827201B
:1018500056F8251018BF4343BDE8F041084808BFBB
:101860004FF0FF3320F089B956F820100548BDE845
:10187000F04120F082B900BF28A002007CA0020045
:10188000C8AB0200E9AB020008B5034820F075F9C7
:10189000BDE8084020F0BAB8FBAB020038B50446FA
:1018A0000D46044820F069F92046294620F0ADF89D
:1018B000002038BD17AC0200F8B5104C6368C3B106
:1018C000012000F057FA002567684FF4004640F207
:1018D000E73029464FF47A720023E7FB0601FEF752
:1018E0000FFC02460B4604F108001EF02BFE65605B
:1018F000F8BD2078BDE8F84000F03CBA6810002040
:1019000070B58AB009F0BEFCC0B1204E204BB6F8CD
:101910006C201D784FF6FF7300249A42CDE90444F1
:1019200085F00105CDF81740ADF81220ADF8143060
:101930008DF81B3004D1174820F01FF90AB070BD94
:1019400002AB4FF4002207A848F20321CDE9082397
:10195000079325F033F9294607A826F0E9FD0E4B39
:10196000197807A84A1C1A7026F0E2FD0B4B0C48A8
:1019700053F8251020F001F90094234607AA04A982
:1019800006F160000EF0CEFDD8E700BF4C0300204A
:101990006810002027AC0200C848002028A00200E0
:1019A00068AC02002DE9F041DFF8B48088B002ABEA
:1019B0004FF4102205460E4605A848F20421CDE951
:1019C0000623059325F0FAF808F1180027F00FFD1B
:1019D0004FF47A77A0FB0704C00B40EA4440D8F8E4
:1019E000044098F80010241822D081F0010105A8C5
:1019F00026F09EFD98F8001005A826F099FD631CBE
:101A00002CD041F69B039C421FD94FF217639C4296
:101A10001ED9144B9C421DD9134B9C421ED8134F08
:101A20000323013C3C44B4FBF7F444EA8314E1B2E1
:101A300005A826F07DFD0023009305AA314628461F
:101A40000EF070FD08B0BDE8F08100236427E8E7E0
:101A50000123E6E7022342F21077E2E73F21E7E7BE
:101A600068100020EF9C09003FC84002C027090011
:101A70002DE9F047104615460F4626F0CAFD0646EA
:101A8000284626F0C6FDAC888046002C46D0284665
:101A900026F0BFFD00F03F033F2BC0F387111EBFB0
:101AA000204A52F8210000FB03F9284608BF4FF0F6
:101AB000FF3926F0AEFD04B204EB84041A4D6B78B6
:101AC000434503D1BA886B889A4229D02B78B34218
:101AD00026D01649164851F826104B46224620F0CB
:101AE0004CF8003EBB8885F8018018BF01266B804A
:101AF0002E70C5F8049040F2E7304FF40045002105
:101B00004FF47A720023C4FB0501FEF7F9FABDE831
:101B1000F04702460B4607481EF014BDA146CDE72C
:101B2000BDE8F0877CA002006810002028A0020019
:101B30007FAC02007010002010B594B00023079312
:101B400006A9CDF81F3007A80123069305F002F877
:101B50009DF81C3009AC032B2AD8DFE803F00223E0
:101B600025271649204622F067FC9DF81D30049376
:101B70009DF81E3003939DF81F3002939DF820308E
:101B800001939DF821300E4A009305949DF8223070
:101B90001E210CA81FF0FEFF0A480CA91FF0EDFF44
:101BA00014B010BD0849DDE70849DBE70849D9E76B
:101BB000084A0A2120461FF0EDFFD6E7A1AC02003B
:101BC000C3AC0200E6AC0200A8AC0200AFAC02005D
:101BD000B9AC020062F2020008B5014620B10F481C
:101BE000BDE808401FF0C9BF0D481FF0C6FF0D49F2
:101BF0000D4824F0A0F9014608B10C48F0E721F0A7
:101C00008CF9032013F0BEF909481FF0B6FF054810
:101C10001FF044FEBDE80840FFF78EBFFCAC020099
:101C20001CAD0200B89F020030A0020033AD0200DC
:101C300056AD020010B514481FF09FFF134C102141
:101C4000204626F02FFE0028B8BFDD23104911489A
:101C5000BCBF2370637027F019FA0F490D4800F0DC
:101C600033F8014620B10D48BDE810401FF085BF94
:101C70000B490C4827F030FA0B4804F067FE014688
:101C800008B10A48F0E710BD68AD0200B84800206E
:101C900001190000882900209829002079AD020050
:101CA000B918000070100020D91B0000FCAC020025
:101CB000014B18681EF0AABBA8290020014B186828
:101CC0001EF0A4BBAC29002070B506460D46224884
:101CD00026F08FFF00283CD01F4841F201620D2101
:101CE0001FF065FE0446002831D11B4840F2111256
:101CF0000B211FF05CFE044648BB17480B211FF068
:101D00006BFE044618BB154B15491E60154B4B6006
:101D100011484FF400638B601FF071FE0E4840F2D3
:101D200011120C211FF043FE044680B90A480C2111
:101D30001FF052FE044650B90B4B0C491D600C4B72
:101D40004B6005484FF480538B601FF058FE2046CF
:101D500070BD6FF01204FAE7D0980200AC290020A1
:101D6000B0290020BD1C0000A8290020BC290020AB
:101D7000B11C0000084B1A691268920448BF80F039
:101D8000010028B19B68DB6803484FF400511847F5
:101D90009B681B69F8E700BFD098020030B50A4C79
:101DA0000A44914200D130BD11F8013B584003096B
:101DB000E35C83EA0013DDB2C3F30313E05C80EA63
:101DC0000510C0B2EDE700BF9AAD02000B68013309
:101DD0000B60014B1B681847CC030020014B1860B7
:101DE000704700BFCC03002007B50B460021024618
:101DF0000191034801A900F0F9F803B05DF804FB74
:101E0000CD1D000030B585B0CDE9010104460025A7
:101E100001A90548039500F0E9F8DDE90230984290
:101E2000B8BF255405B030BD551B02002DE9F84F51
:101E3000B0F8189019F00808044693460DD001290F
:101E40000CBF49F0100949F02009A0F818908BF355
:101E50001188BFF36F8FBDE8F88F09F007090229D9
:101E600007D120461FF0A3FE0028F0D00128238BC5
:101E70004ED16769218B002F15DA256821F0070103
:101E8000C4E9008841F0010121830026218B01F083
:101E9000070ACA4502D0A368002B5AD10DB9002EFB
:101EA00071D0002356E001F007035A1F012A1ED803
:101EB00021F00701062B256889B2C4E900880AD100
:101EC0003DB1638B2A46126801339BB2002AFAD1D6
:101ED000638341F00201218320461FF068FE06461D
:101EE0000028D3D0238B43F020032383CDE7042B9A
:101EF0000CD121F0070189B2218320461FF057FE43
:101F000005460028C1D041F0200121830025BCE70F
:101F1000032809D1226923F00703166843F006035A
:101F2000238300252F46B1E7042806D1226923F038
:101F30000703566843F00403F2E7052806D1226937
:101F400023F00703966843F00503E9E700252E46D2
:101F5000E8E7012341F0080121838BF31188BFF3E7
:101F60006F8FFBB985BB16B11F492046B0474FF0B4
:101F70002003EFF3118B83F31288BFF36F8F238B52
:101F800023F008032383238BDA0625D523F01003DF
:101F900023830121B4F8189009F0070900297FF480
:101FA0005EAF54E7A1680029DCD0D1F80090D1F8E9
:101FB00004B03B4652462046D847B9F1000FD1D075
:101FC0004946D9F80090F2E729463B46524620465A
:101FD0002D681FF008FEC5E713F020011EBF23F097
:101FE000200323830221D5E7131C02002DE9F04FC3
:101FF00091B08B46029092461C4600259AF800004C
:1020000008B928465FE325280AF1010707D0029B9B
:10201000594698470028C0F25683013512E218222B
:1020200000210AA822F06DFA9AF80130252B78D009
:1020300000221046964694461646394617F8013B4C
:102040002B2B00F09D8000F29480202B00F09B80D1
:10205000232B00F09B802EB19DF8306046F00406E3
:102060008DF83060BCF1000F05D09DF8306046F06F
:1020700008068DF83060BEF1000F05D09DF8306085
:1020800046F010068DF8306028B19DF8300040F021
:1020900020008DF830002AB19DF8302042F0400237
:1020A0008DF830209DF8302002F04400442803D100
:1020B0006FF386128DF830209DF830202A2B42F0E5
:1020C00080028DF830207BD19DF8312042F0010252
:1020D0004B1C8DF831201A782E2A9DF831200CBF28
:1020E0000121002161F341028DF8312074D15A7829
:1020F0002A2A6AD0013300210A26184610F8012B3B
:10210000A2F13007092F40F28E809DF830200E9109
:10211000C2F3400040EAD17161F341028DF83020F2
:102120005AE00AF102078DF833309DF83130D907B3
:1021300040F1498154F8049BB9F1000F07DA9DF88A
:10214000302042F004028DF83020C9F100095A070E
:1021500040F1428154F8048BB8F1000F80F24181C4
:102160009DF831306FF341038DF831304FF0FF3877
:1021700037E12D2B0CD0302B7FF46DAF01225CE7C3
:102180004FF0010C59E74FF0010E56E7012054E7DC
:10219000012652E70CFB0202303A33461E4616F87F
:1021A000010BA0F13007092FF4D9994293D09DF883
:1021B00030100D92D20F62F341018DF830108AE792
:1021C0000B4600224FF00A0CE8E79DF8312042F060
:1021D00004028DF8312002331F4617F8012B6C2AB8
:1021E00041D025D8682A2BD06A2A46D04C2A4CD018
:1021F0001F4617F8012B9DF831308DF83320782ACF
:1022000000F2D980572A4DD8412A03D0453A022AF4
:1022100000F2D1809DF83230042262F302038DF87F
:10222000323001239EE006FB01213039034664E78A
:10223000742A26D07A2ADBD19DF8313006220DE0AF
:102240005A78682A9DF8312006D1012161F3C6022F
:102250008DF831209F1CCCE71346022262F3C6039F
:102260008DF83130C5E75A786C2A9DF8312001D1BC
:102270000421EBE713460322F0E79DF831300522F5
:10228000ECE79DF831300722E8E7BDF8303023F461
:10229000F04323F0020343F4804343F00203ADF81C
:1022A0003030A6E7A2F15801202900F2848001A075
:1022B00050F821F079230000B7230000B723000075
:1022C000B7230000B7230000B7230000B7230000A6
:1022D000B7230000B723000015220000B723000039
:1022E0007923000039230000152200001522000088
:1022F00015220000B723000039230000B723000097
:10230000B7230000B7230000B7230000812300009B
:10231000792300009D230000B7230000B7230000AD
:102320009D230000B723000079230000B72300009D
:10233000B7230000792300009DF83210012003F03C
:10234000780360F30201402B8DF8321002BF9DF834
:10235000301041F001018DF83010632A31D1003B7B
:1023600018BF01239DF83020C2F340010B4363F3F3
:1023700041028DF83020D8E69DF832100220DEE7C9
:102380009DF8322003F07803A3F14000032161F3AC
:10239000020243428DF832204341E3E79DF83220A8
:1023A000032113F0780F61F302028DF8322014BF7D
:1023B00001230023D6E79DF8303043F001038DF868
:1023C00030300023CEE79DF93020002AB4BFDDF87D
:1023D00034904FF0FF39BAE69B077FF5C7AEDDF8C2
:1023E00038809DF831100023CDE90D339DF832304F
:1023F00003F00703012BC1F3C30138D1CB1E042B1B
:1024000022D8DFE803F003090921210054F8043B36
:10241000DA17CDE90A3206E0073424F00704F4E8BD
:102420000223CDE90A239DF8303013F0030656D07D
:1024300002983B46524659461FF084FF0028C0F2DE
:1024400042810544BA46D9E554F8043B01294FEAD4
:10245000E372CDE90A3205D19DF828300A930023B2
:102460000B93E0E70229DED1BDF92830D0E7022B3B
:1024700023D1CB1E042B13D8DFE803F0030A0A1282
:10248000120022680A920023201D0B930446CAE71B
:10249000E01D20F00700F0E80223CDE90A23F5E76C
:1024A00054F8043B0A9301294FF000030B93D3D057
:1024B0000229B8D1BDF82830D0E7042B09D1E31D9B
:1024C00023F0070303F10804D3E90023CDE90A232D
:1024D000A9E7032B04BF54F8043B0A93A3E79DF834
:1024E00033007828AED8622822D825283FF48FAD53
:1024F0005828A7D10DF126030093DDE90A0104ABAA
:102500000CAA1FF0D9FE8246B8F1000F0DF126008B
:102510000CDB9DF83020A0EB0A036FF38612984580
:102520008DF8302002D9A8EB03030D9380463DE0DF
:102530006338152886D801A252F820F0BD25000086
:102540002126000045240000452400004524000009
:1025500045240000212600004524000045240000F9
:1025600045240000452400007B2600004926000089
:102570004D2600004524000045240000952500005C
:1025800045240000492600004524000045240000A1
:1025900049260000B8F1000FDDF828A00ADB41460B
:1025A000504621F06CFF0AEB00080026BAF1000F3C
:1025B0000CD147E7504621F05BFFF4E70A9B8DF80A
:1025C000103000260DF1100A0DF11108A8EB0A03D6
:1025D00006B101339DF83220D00668D50233520689
:1025E0000D9948BF0E9A0B4448BF9B18B9F1000FD4
:1025F00076DD9DF83020A9EB0309C2F38003039335
:1026000053076DD4500661D546B1029B59463046FA
:102610009847002857DB039B01351E46302356E0C0
:102620001E070FD413F0100618BF2026DDE90A2379
:10263000002BBFF65FAF524263EB4303CDE90A23A1
:102640002D2657E72B26F1E7002653E70A9840B3DB
:102650000DF1260300930CAA04AB00211FF02CFE01
:10266000BDF8323003F0EF0343F4F04343F01003BE
:102670008246ADF83230002646E70A9B07293FF62E
:10268000E1AEDFE801F00C04060C08080C0C1D702C
:10269000D8E61D80D6E6EA17C3E90052D2E61D60EF
:1026A000D0E6DFF8C8A006460AF105088EE7110754
:1026B00048BF013393E7184603935946029B984756
:1026C0000028039B04DA11B0BDE8F08F20234D44AD
:1026D0004A46002AA5EB090109F1FF39EBDC0D465A
:1026E00036B1029B5946304698470028EBDB01354E
:1026F0009DF83230D90601D41A0706D5029B5946F7
:10270000302098470028DEDB01359DF83230DB06AB
:1027100007D59DF83300029B594698470028D2DB25
:1027200001350D9E2E44731B002B16DC0298434688
:10273000524659461FF006FE0028C4DB0544A94452
:10274000A9EB0503002B7FF77DAE029B59462020A5
:1027500098470028B7DB0135F2E7029B5946302045
:1027600098470028AFDB0135DDE700BFAAAD0200C6
:1027700030B51049104889B0002226F0A7FE0F4D51
:102780000F4900220023CDE9062300240E23CDE9C2
:102790000334CDE901440B4B00944FF440722846BA
:1027A0001DF03CFB0849284626F0E6FA204609B011
:1027B00030BD00BFCD270000A0100020D8100020A1
:1027C000C04E00200D2B0000B0AD020001481DF0EE
:1027D000B1BC00BF7C0D00200C4A002310B5137063
:1027E0000B4A13600B4B0C4A1A604FF4004000F088
:1027F000B9FC00F06BFA09481FF0BBFDBDE81040C2
:10280000074908480823482226F06CBACA48002025
:10281000CC290020D0030020B1230200D4290020BD
:10282000487D0020DC29002070B5124BBFF35B8F80
:1028300053E8005F6A1C43E800210029F8D1BFF388
:102840005B8F2DB90C4C0D4E361B3611B54200DB9B
:1028500070BD237B53B123689B690BB12046984719
:10286000636804221968204600F022FA013510340A
:10287000ECE700BFD0290020689E0200889E02007D
:1028800010B54FF02003EFF3118483F31288BFF3E8
:102890006F8F04481FF07DFD84F31188BFF36F8FA5
:1028A00010BD00BFD429002010B5044C237813B903
:1028B00003481DF03FFC0123237010BDC9480020D0
:1028C0007C0D0020064BBFF35B8F53E8002F0132D5
:1028D00043E800210029F8D1BFF35B8F704700BFA8
:1028E000CC2900200020064BBFF35B8F024653E843
:1028F000000F43E800210029F9D1BFF35B8F704737
:10290000CC290020F8B5FFF7EDFF0A4C0A4D2D1B2E
:1029100007462D110026AE4200DBF8BD63685B79E7
:102920002BB123681B6913B13946204698470136FD
:102930001034F0E7689E0200889E0200164B984211
:1029400037B5044602D3154B984220D314480022D1
:10295000002301A91DF002FA0546D8B90122019B06
:10296000BFF35B8F53E8001F43E800200028F9D134
:10297000BFF35B8F019821464122043021F066FDB0
:10298000019C7E2384F8453084F846500434204668
:1029900003B030BD034CFAE7D8970200740D030072
:1029A000DC290020B8AD020050B1064B984206D396
:1029B00003F5107398422CBF0020012070470020BF
:1029C000704700BF487D0020434B1B782DE9F74F2F
:1029D000044603B900B3FFF753FF054678B1BFF3D0
:1029E0005B8F3E4B53E8002F013A43E8002100295A
:1029F000F8D1BFF35B8F9CB128461FF0E3FD2CB9E3
:102A0000374B1B68002B01DDFFF77CFF35481FF0BB
:102A1000BEFC041E18BF0124204603B0BDE8F08FA1
:102A2000314B1B78BBB92B7ADB0714D41FF0DDFDCB
:102A3000804628461FF0A4FD014640461FF0BCFC1E
:102A40002A4B2B4ADFF8ACA0DFF8ACB09B1A064645
:102A50004FEAD30936B9294E294FBF1B3F114FF01A
:102A6000000836E0B6FA86F7C7F11F073946284650
:102A70001FF089FD234B9842024602D3224B984215
:102A800016D31046FFF790FF90B9524510D06989D0
:102A9000C1F3891100F0FEF84FEA891343F00103F6
:102AA0000246ADF800303946434658461FF0DEFC7A
:102AB000012303FA07F726EA0706CBE773685B7979
:102AC00023B1336829465B683046984708F101080E
:102AD0001036B845F2DB8FE7C9480020C82900202E
:102AE000CC290020D4290020CA480020289E0200BA
:102AF000309C0200B8AD0200D2AD0200689E020018
:102B0000889E0200D8970200740D030010B5FFF7ED
:102B10008BFE1EF00DF80C4B186030B10B4B1B6890
:102B2000092B02DD0A481DF005FB094C0020FFF7C8
:102B30004BFF0028FAD14FF0FF324FF0FF33204611
:102B40001DF01EFBF2E700BFF8290020C829002075
:102B50007C0D0020294B37B51B68418104469847FE
:102B6000E0604FF02003EFF3118583F31288BFF389
:102B70006F8F234821461FF000FC85F31188BFF3B7
:102B80006F8FBFF35B8F1F4B53E8002F013243E879
:102B900000210029F8D1BFF35B8F1B4A127882B164
:102BA0004FF02003EFF3118483F31288BFF36F8F8C
:102BB0000020FFF709FF84F31188BFF36F8F03B084
:102BC00030BD124A1B681268002AF8D0012B0AD1C6
:102BD00000220023CDE900230D484FF400420023DA
:102BE0001EF0C4F9EBE70A2BE9D1094826F07AFC7C
:102BF000084803B0BDE830401DF09CBAD003002067
:102C0000D4290020C8290020CA480020F829002023
:102C1000A01000207C0D0020F8B50E4F3D7875B94E
:102C20000D4C0E4EFFF700FE361B3611B54207DB8A
:102C30000020FFF7C9FE0028FAD101233B70F8BD40
:102C400063685B791BB1236820465B69984701354F
:102C50001034EBE7CA480020689E0200889E0200FC
:102C600007B504380190BFF35B8F50E8003F5A1E50
:102C700040E800210029F8D1BFF35B8F012B03D17D
:102C8000034801A926F049F803B05DF804FB00BF32
:102C9000DC290020044A054B9B1AB1EBD30F34BF4B
:102CA00052F8310000207047309C0200689E0200FC
:102CB000054A4368801A0011013001221871196019
:102CC0005A71FFF7F1BD00BF689E02002023024940
:102CD00002481A4626F006B8887F0020FC2900200A
:102CE00037B50023094D01930120FFF76DFE04461F
:102CF000FFF7E8FD0022002301A928461DF02EF869
:102D000008B1002CF0D1019803B030BDFC2900209F
:102D100007B50023019307480022002301A91DF0F5
:102D20001DF810B1FFF7DCFF0190019803B05DF8CA
:102D300004FB00BFFC290020F0B5037A85B0DC0756
:102D400001901ED4457A2D091BD0002426460198F7
:102D500031461FF018FC0746FFF726FE70B134B964
:102D6000019B294618691FF027FB044648B124FA45
:102D700006F3D90702D53846FFF772FF0136AE4297
:102D8000E5D3019B1A7A920704D55B69084C03933B
:102D9000039B2BB9064801A925F0BFFF05B0F0BD84
:102DA0001D6803A9204625F0B8FF0395F0E700BF92
:102DB000FC2900200EB403B503AB014653F8042BE5
:102DC00004480193FFF712F902B05DF804EB03B079
:102DD000704700BFA32902002DE9F0471D46089B5C
:102DE0001746DA0604460E4605D499064CBF2A4912
:102DF0002A49FFF7DFFFDFF8A8904FF00008A84549
:102E00002ADBDFF8A080DFF8A090DFF894A000258F
:102E1000BD422FD2725D49462046FFF7CBFF0135F8
:102E2000102D20D12149DFF87880DFF884902046EA
:102E3000FFF7C0FF0025AF4228D9725DA2F1200341
:102E40005F2B28BF2E2249462046FFF7B3FF0135EE
:102E5000102D14D1BDE8F08749462046FFF7AAFFA0
:102E600008F10108CBE76A07D2D151462046FFF7A7
:102E7000A1FFCDE741462046FFF79CFFCFE76B0758
:102E8000D9D141462046FFF795FFD4E74146204679
:102E9000FFF790FFDBE700BF16AE020015AE0200A1
:102EA000C20A03001EAE020018AE020005090300AC
:102EB00022AE02002DE9F04F87B011F00206059214
:102EC0009DF84080BDF9489007461A4601F0010A76
:102ED00001F0080506D011F0440F38D13349FFF74F
:102EE00069FF0646BAF1000F0AD0314B314953F859
:102EF0002820314B3846002A08BF1A46FFF75AFFF0
:102F00003DB12E4B2E4953F828203846FFF752FF8B
:102F10000546B9F1000F16DB059B002B43D00123BA
:102F200003FA08F8274B284C18F0100F18BF1C465E
:102F300049469DF84400FFF7ADFE2146024638465B
:102F4000FFF738FF0544A81907B0BDE8F08F1F4B05
:102F5000196831B31E4B4FF461661B68B2FBF3F383
:102F60004FF47A7BB3FBF1F4B4FBF6F206FB1246A6
:102F700001FB14340BFB04F44FF03C0CB4FBF1FEEA
:102F8000B6FBFCF301FB1E440CFB13660BFB04F4C5
:102F90000096B4FBF1F1CDE901E10E49FFF70AFF1C
:102FA0009FE708469DE7084CC2E700BF33AE02002A
:102FB0008CA00200F1F1020025AE0200A0A00200E8
:102FC00058AE02002FAE02002AAE0200182A0020DE
:102FD0001C2A00203CAE020038B50C46E10705462D
:102FE00003D5084A0849FFF7E5FEE20608D4A30620
:102FF00028464CBF05490649BDE83840FFF7DABE10
:1030000038BD00BF25AE0200F1F1020016AE02008D
:1030100015AE02002DE9F0478B7A13F007088AB04D
:1030200005460E46174622D00A7A4989C3F3C203E1
:10303000C1F38911D243CDE900830291F36802F014
:1030400001023946FFF736FF8146347AE44314F033
:1030500001040ED0294630461FF039FBB8F1000FAD
:103060002BD0424639462846FFF7B6FF25E0C14639
:10307000EBE7B8F1000F26D12746EB68069306AAC6
:103080003B46A96830461FF00EFB069A6B681A6033
:103090003AB1AB68134413F8014CA4F10A035C4243
:1030A0005C4128461FF070FC069B1F44002BE4D1B6
:1030B0001CB114492846FFF77DFE28460AB0BDE83A
:1030C000F0471FF061BC30461FF08FFA0E490246F0
:1030D0002846FFF76FFE4FF0100A05AA234606A9FF
:1030E0003046CDF814A01FF0DEFA059A002AB8D0B9
:1030F0004B46009706A92846FFF76EFE059B1C4429
:10310000EBE700BF5EAE0200F1F1020073B542F2E0
:103110000F738B4228BF0B4605680F4A04460521F2
:1031200068461EF037FD63680C495B6806460B2253
:1031300028461FF0BFFA63683246694628465B6836
:103140001FF0B8FA636806495B681B2228461FF027
:10315000B1FA02B070BD00BFE0F8020098AE020004
:103160007CAE0200084A10B50123084C1360002110
:10317000A04204D801B11360054B186010BD40088F
:103180005B000121F4E700BF1C2A002040420F0031
:10319000182A0020F8B5074F0D4604464618B442D9
:1031A00001D12846F8BD386814F8011B83685B68B4
:1031B0009847F4E7342A0020014B024A1A6070470E
:1031C000342A00208898020001481FF0DDBB00BFB0
:1031D000D0A002000148FFF799BF00BFD0A00200B5
:1031E00010B508460C461FF0BEF9054821460F22CF
:1031F000FFF710FF2046BDE810401FF0E3B900BF05
:10320000D0A00200014B01221A707047DC48002058
:10321000024B034801221A701FF0B6BBDD480020A4
:10322000FCA002000148FFF771BF00BFFCA0020034
:1032300010B508460C461FF096F9054821460F22A6
:10324000FFF7E8FE2046BDE810401FF0BBB900BF05
:10325000FCA00200054B1B781BB141F2883026F020
:1032600006B9A42000211DF049BC00BFDD480020A4
:103270002DE9F047DFF88C90DFF88CA080460F46F0
:10328000042499F80050CDB94FF0FF334FF0FF32CE
:1032900050461CF061FE3A46414628461CF04AFB67
:1032A000064650461CF0D0FE184DFEB101232B708F
:1032B00099F800306BB93846BDE8F0873A46414688
:1032C00000201CF037FB0646EEE75CB92C704FF08F
:1032D000FF3400201CF07AFB0028ECD02B78002B68
:1032E000F3D1E8E7013CFFF7B5FFF2E72B7813B124
:1032F000013C04D12C702B78002BC2D1DBE7FFF707
:10330000A9FFF8E7DD4800203C0D0020DC48002044
:103310002DE9F7430F4606460821C06ADFF85090B2
:103320001FF01FFC3C68241A80463C6004EA090533
:10333000AC4203D8002003B0BDE8F08308236A46FE
:10334000214630461FF067FB0028F4D1694630461D
:103350001FF011FC40B1BDF80230BDF804203C6004
:1033600005EA090513441D44A4EB0804E0E700BF87
:103370000000FFFF2DE9F04F044689B00D4600F133
:103380001407384625F00EFD28461CF049FBA062C4
:1033900078B9AB4BAB49AC48C91AC908890141F0AF
:1033A00001011FF029F86FF00505284609B0BDE8B6
:1033B000F08F83681B699847E06260B9A149A04B10
:1033C000A248C91AC908890141F001011FF014F887
:1033D0006FF01505E9E7A06A83681B6998470368E1
:1033E000013B1F2B08D99749954B9948C91AC90821
:1033F000890141F00101E9E7A06A216805AA25F0E9
:10340000D6FA40B18F498E4B9248C91AC908890132
:1034100041F00101DAE7A5892DB1069BB5FBF3F276
:1034200003FB125545B18749854B8B48C91AC9081A
:10343000890141F00101C9E7E389012B08D88149DD
:103440007F4B8648C91AC908890141F00101BDE7CF
:10345000E36A009593F804804FF0FF334FF0FF329A
:1034600038461CF079FDE06A08211FF07AFBA94676
:103470000646E3891FFA85FA534545D8E3894B454B
:1034800000F0F2809A450BD1009908234246891B2F
:1034900020461FF0F8FA18B9E08969461FF056FB7C
:1034A00069462046FFF734FF0546002840F0DE80DD
:1034B000009BDFF8AC91636003EA0903A360D4E9E1
:1034C000011399420ED3082301AA20461FF0A3FA44
:1034D000C0B901AB13F8012B904540F002810130D7
:1034E0000828F7D16368E0891B0C1B046946009328
:1034F0001FF02CFBA3890099424620461FF0C3FA17
:10350000002826DA0546B1E0A1892B04891B13FAAD
:1035100081F142460823204600911FF0B4FA78B1A9
:10352000E08969461FF012FB09F10109009908239F
:10353000424620461FFA89F91FF0A5FA00289DD0BF
:10354000013596E7BAF1000F00F0E3806FF01C053B
:103550008CE04FD06368334400934FF6FF780099B6
:10356000A3898AB29B1B9A421FD3354B35493D48EC
:10357000C91AC908890141F003011EF03DFF6168C5
:1035800020461FF0A5FA0028BCD16368344AA189FF
:1035900013400B44A3EB460363601340A360204633
:1035A0001FF0DBFB002840D0ACE7082303AA20462D
:1035B0001FF031FA0028A5D103A920461FF0DBFA3D
:1035C00038B1BDF80C30434503D1BDF81030002BA5
:1035D00070D0009B33440093C1E75B1A42462046FB
:1035E0001FF051FA00288DDB08D0E26AA368126848
:1035F0001344A360D4E901318B42EED86168A389FA
:1036000001EB46029A42CDD1DFF85480A36801EA6B
:1036100008029342C6D020461FF05AFA00287FF4D1
:1036200071AF636803EA0803A360A089A388A0EBD5
:103630004606B3421AD120461FF02EFB62E700BFB8
:10364000309C0200209E0200D9AE0200F5AE0200BE
:1036500017AF020034AF02004CAF020060AF0200AF
:103660000000FFFFD2AF02006FF02C0538461CF0BF
:10367000EBFC002D7FF499AE01232374274E284BD9
:10368000A289E1892748F61AF608B60146F0030632
:1036900033461EF0D2FE6168234833468AB2090CD5
:1036A0001EF0CBFEA16821488AB23346090C1EF0F9
:1036B000C4FE7AE61A4B19491D48C91AC90889017E
:1036C00041F003011EF098FE6368E0891B0C1B04A7
:1036D000694600931FF03AFA009920461FF0F8F966
:1036E00060E701A920461FF046FAD4F804B080B183
:1036F000009ABDF808A0BDF80610E06A02EA0902C7
:10370000A26051441FF02DFA02445A45A2603FF4D2
:1037100019AFABEB06036360D1E600BF209E020049
:10372000309C020083AF02009AAF0200ACAF0200EF
:10373000BDAF02002DE9F04F1E46037C89B0044660
:10374000894690467BB9614B61496248C91AC908EC
:10375000890141F001011EF04FFE6FF00C05284673
:1037600009B0BDE8F08FC26A082110461FF0F9F9D0
:103770003146824610461FF0F4F9A389A3EB8A0371
:103780009E42074600F29E801EB1B8F1000F00F085
:1037900099806368039304AA03A92046DDF80CB05E
:1037A0001FF08FFA05460028D9D1BDF810304B45DF
:1037B00005D06268039B9A42EDD1E6B9CFE704A930
:1037C00020461FF0D8F90028F3D0BDF8143086B198
:1037D0009E4210D1BDF812004FEA1B41090401447A
:1037E0003346424620461FF024F9002803DC0546F4
:1037F000B5E7002BB3D0A7BB04F1140A4FF0FF329A
:103800004FF0FF3350461CF0A7FBDFF8CCB0E38944
:103810009D4254D0D4E90123F9188A4224D3ADF84B
:103820001A3006A8FF238DF81E30ADF81890ADF8B9
:103830001C601FF082F93246414620461FF008FA0C
:10384000034638B906A920461FF015FA002814BF10
:1038500003463346019350461CF0F6FB019B1D4680
:103860007DE75744BFB2C7E70821E06A1FF079F946
:103870004FF6FF73ADF818300023ADF81C30131865
:10388000ADF81A30A38902EA0B021A44121A6260D8
:1038900006A81FF052F906A920461FF0ECF9E089AE
:1038A000211D1FF053F9636803EA0B03A360204650
:1038B0001FF053FA03460028CCD10135A7E76FF07B
:1038C0001B03C7E76FF0150549E700BF309C0200F6
:1038D000209E0200C5AE02000000FFFF2DE9FF4759
:1038E0001E46037CBDF8309004460F46904673B9DF
:1038F0002B4B2C492C48C91AC908890141F00101F8
:103900001EF07AFD6FF00C0004B0BDE8F087C06ACD
:1039100008211FF026F9A389A3EB40039E423CD85F
:10392000636801934FF0000A02AA01A92046019D95
:103930001FF0C7F90028E7D1BDF80830BB4208D115
:1039400002A920461FF017F918B10AF1010A1FFA5F
:103950008AFA6268019B9A4218D0D145E4D2BDF838
:103960000C30BBB1D14515D8BDF80A102D0CB342AF
:103970004FEA054528BF33464246294420461FF0FA
:103980004AF80028C0D1BDF80C00BDE7BDF80830EA
:10399000BB42E4D06FF00100B6E76FF01500B3E76B
:1039A000309C0200209E0200C5AE0200084B30B5DC
:1039B0001C68084B01461A6800239C4201DC002069
:1039C00030BD1046103205788D42F9D00133F4E74E
:1039D0005CA10200D4030020084B1B6810B50C4604
:1039E0002BB1FFF7E3FF28B12060002010BD6FF07E
:1039F0000C00FBE76FF00100F8E700BFD4030020E4
:103A000030B589B00C4615460190FFF7CFFFB8B12D
:103A10004368029383682268C068CDE903350023B8
:103A2000CDE9062305931FF058FA60B1074901AAB2
:103A300024F0C1FF079808B9059B236009B030BD89
:103A40006FF01500FAE76FF01200F7E7DF2E0200C3
:103A5000104B2DE9F0411C6805460E461746ACB1E7
:103A60004FF0FF324FF0FF330B481CF075FA6368DC
:103A70003246D3F8088029463B462046C0470446D4
:103A800005481CF0E1FA2046BDE8F0816FF0010422
:103A9000F9E700BF542A0020500D002000230360E6
:103AA000044B5A6812B9C3E90000704710605860AF
:103AB000704700BF4C2A0020014B1860704700BFC0
:103AC000542A002030B585B000230546CDE90233E5
:103AD00001904FF0FF330C484FF0FF321CF03CFADE
:103AE0000A4B1C6834B1636820461B6801A99847DB
:103AF0002468F7E7284600F0D3F8044602481CF093
:103B0000A3FA204605B030BD500D00204C2A0020FD
:103B10001FB5CDE9010103924FF0FF330A484FF082
:103B2000FF321CF019FA094B1C6834B16368204657
:103B30001B6801A998472468F7E703481CF084FA3A
:103B4000002004B010BD00BF500D00204C2A002002
:103B5000024B0022C3E90022704700BF4C2A00201C
:103B6000024B0022C3E90022FFF7F2BF582A0020CF
:103B70002DE9F34107460E4609B100230B601E4CA8
:103B8000DFF878800025444508D31D4B1C680CB134
:103B9000143CC4B9284602B0BDE8F081216801AAEE
:103BA00038461FF0C1F960B125B90EB1019B3360F1
:103BB000254606E02968206800221FF0B5F9002894
:103BC000F3D11434DFE7216801AA38461FF0ACF9BD
:103BD00060B125B90EB1019B3360254606E0296826
:103BE000206800221FF0A0F90028F3D114F1140F6F
:103BF000D0D06469CBE700BFDC9A0200309C0200A1
:103C0000582A00202DE9F04385B00546DDF83080C4
:103C100003900C4616461F46B8F1000F18D0D8F88E
:103C2000001081B103AA1FF07FF960B9002007E0FE
:103C3000D8F80830009303983B4632462146C847DF
:103C400005B0BDE8F083D8F80490B9F1000FEFD1CA
:103C500003A92846FFF78CFF0028E7D0D0F808809A
:103C6000039832463B462146C04706460028DDD031
:103C7000084B094C2846E41AE408FEF75FFEA4014D
:103C800044F0010401462346044832461EF0D5FBA9
:103C9000CCE700BF309C0200509E020013B002002F
:103CA000F8B51A4C1A4F06460025BC4206D3194BEC
:103CB0001C680CB1143C9CB92846F8BD1EB9E368D9
:103CC0004BB91434F1E72068002231461FF02CF97B
:103CD0000028F4D1F5E79847002D08BF0546F0E726
:103CE00036B9E36863B914F1140FE5D06469E0E70D
:103CF0002068002231461FF017F90028F1D1F2E7C1
:103D00009847002D08BF0546EDE700BFDC9A02008A
:103D1000309C0200582A002010B5064C23783BB98D
:103D2000FFF71EFF00F066F808B90123237010BDED
:103D30000020FCE7DE4800202DE9F047048FDFF883
:103D4000B0A0013498B080468946A4B200F10806BC
:103D5000651EADB2B5F5004F47D04A2305AA2946E6
:103D600030461FF0B3F804F57F543F34A4B2074641
:103D7000214601230DF10B0230461FF0A7F8002F5A
:103D8000014603DC002803DC2C46E1E7002816DCB2
:103D9000B8F83830AB4209D142466B1E22F8383FA2
:103DA0004FF4004102233046FFF7C4FC2946304659
:103DB0001FF088F8214630461FF084F8E4E707F149
:103DC00060030DEB0307002307F84C3C5246CDF887
:103DD000009003AB05A80396ADF81040FFF712FF63
:103DE0000028D1D018B0BDE8F0870020FAE700BF66
:103DF0009B2F02007FB50123694604200193FFF742
:103E0000EBFD0446002836D102AA01A90420FFF7E1
:103E1000F7FD10F1130F04462DD038B10C3405D046
:103E2000404080F311884FF0040002DF0399B1F5A0
:103E3000803F23D2009A00239568184608448542A3
:103E40009CB203D30133082BF8D11C460D4D5368A7
:103E5000AB602846D368EC82A982EB631FF036F989
:103E6000044640B9084E6E602846FFF717FE284604
:103E70006E60FFF721FE204604B070BD6FF0200495
:103E8000F9E700BF602A0020D8030020F8B50546F6
:103E90004FF02003EFF3118683F31288BFF36F8F87
:103EA000094B1C685CB1094FD4E90132002D08BFF1
:103EB00013460BB1387898472468002CF4D186F368
:103EC0001188BFF36F8FF8BDA02A0020A82A002018
:103ED0001FB50F4B1A68BAB901221A600D4A07CAFA
:103EE00001AB83E807000C4A4AB193E8070020F0D1
:103EF00027FB002005B05DF804EBFFF7C7BF82F396
:103F00001188BFF36F8FF4E705B05DF804FB00BFC5
:103F1000E8030020A82A002041450200F0B589B03E
:103F20006E460146054630461FF0ECF896E807005D
:103F3000174C84E807002078274638B3154B00213A
:103F400019606B1C0DD0144816464FF4004C134AF0
:103F50000023E6FB0C01FCF7D3F80121281A25F019
:103F600066FA1CF04DFB0120FFF790FF97E8070071
:103F700005AB83E807000A4A1AB193E8070020F06E
:103F8000CCFAFFF7A5FF1CF009FD207809B0F0BDC1
:103F9000A82A0020E80300203F420F0040420F0003
:103FA0001B450200014B1868704700BFEC0300205E
:103FB000F0B5082289B01FF061FACB6A03930B6B4E
:103FC00004934B6B05938B6B0693CB6B0793134654
:103FD0006A460C460646002711461046CDE9017791
:103FE00000971FF058F93146054630461FF053F947
:103FF000216B0391616B0491A16B0591E16B054409
:10400000CDE90617104611461FF045F93146054423
:1040100030461FF040F90544206A0090606A019024
:10402000A06A0290A06B0690E06B07903046CDE945
:10403000047703971FF02FF90544606A0090A06A87
:10404000D4F838C00190E06A0290CDF810C0606BDF
:10405000D4F83CC00390CDE905C0206A07903046F3
:104060001FF019F90544E06A0090206B0190606B25
:104070000290206A0690A06A07903046CDE9047746
:1040800003971FF031FA236B0093636B0193A36BCB
:104090000293E36B0393636A0693E36A07932D1A13
:1040A00008233046CDE904771FF01EFA636B0093B6
:1040B000A36B0193E36B0293236A0393636A0493F4
:1040C000A36ACDE90537236B07932D1A08233046E1
:1040D0001FF00AFAA36B0093E36BCDE90137636A23
:1040E0000393A36A0493E36ACDE90537636B0793EF
:1040F0002D1A082330461FF0F7F92D1A10D40D4C55
:1041000035B90822314620461FF0C4F901280FD0E6
:1041100008232246314630461FF0E6F92D1AEFE714
:10412000044A0823314630461FF0B5F82D18F8D45C
:1041300009B0F0BD64A102000449431E0F3013F81A
:10414000012F8A5C1A708342F9D170473EB0020099
:10415000F0B5264E07460C460FCE8DB001AD0FC50B
:104160000FCE0FC596E8070085E807003846002FF8
:1041700038D0002C38D0381F2146024610344B78F6
:104180000D781B0443EA0563CD782B438D78043109
:1041900043EA05238C4242F8043FF0D1144C042139
:1041A0008A07036916D1C3F30742A55C1A0EA25C05
:1041B00042EA0562C3F30725DBB2655DE35C42EAD0
:1041C000054242EA032221F0030330336B4453F8E3
:1041D0002C3C534050F8042F013153402C290361EB
:1041E000DED101200DB0F0BD2046FBE7F09E0200BD
:1041F0003EB00200014910220A60704710ED00E055
:1042000072B6404080F31188BFF36F8FBFF34F8FBA
:1042100030BF62B6BFF36F8F704700BF72B64940C0
:1042200081F3118820BF80F3118862B6704700BF08
:1042300073B506460C4601B3134B144D1448ED1AE2
:10424000ED08AD0145F00105ADF80050D1E90123BD
:1042500009681EF00BF9ADF80050D4E90423E168B9
:104260000C481EF003F9E1690B482A461EF0D1F80C
:10427000A1690A482A461EF0CCF82146304602B011
:10428000BDE870401BF014BC309C0200409E020050
:104290003EB102006DB102009CB10200ABB1020060
:1042A00043B2002B08DB012200F01F0002FA00F0ED
:1042B0005B09024A42F82300704700BF00E100E0BA
:1042C00043B2002B0DDB01225B0900F01F0002FA54
:1042D00000F02033034A42F82300BFF34F8FBFF3AF
:1042E0006F8F704700E100E0054B420900F01F00AE
:1042F00053F82220012303FA00F01040704700BF5A
:1043000000E100E043B2002BA8BF03F1604301F1DC
:104310000101B8BF064B4FEA4111ACBF03F5614341
:1043200000F00F00C9B2B4BF195483F800137047EE
:1043300014ED00E008B572B6044B986918B100227C
:104340009A6124F020FD62B608BD00BF4C470020F2
:1043500030BFFFF7FDBF00BF0F4A08B50F4B22F07B
:104360007F029A60BFF34F8FBFF36F8FD3F888201F
:1043700022F47002C3F88820EFF3148323F00403BF
:1043800083F31488BFF36F8F1BF036FC1CF04AFCDC
:1043900000F016FB1BF03AFC0000000000ED00E00E
:1043A000094A0A4993680968D967094998674B68B7
:1043B00043F080534B60002383F31188BFF36F8F6A
:1043C0009368D86F704700BF4C47002050AB020085
:1043D00000ED00E012498A684FF030001044EFF31E
:1043E000098C80E8F01F202080F31288BFF36F8FC4
:1043F0000C4F4FF00066CA698A603E60906F0023E0
:10440000936780F3118804B5104600F01BFBBDE8EC
:10441000044002F1300090E8F01F8CF309887047E7
:104420004C47002004ED00E01EF0040F0CBFEFF33A
:104430000880EFF30980816911F8021C0229FFD07E
:1044400001B51FF076FF01BD42F8203C009B42F809
:104450001C3C0A49019B42F8183C029B42F8143C60
:1044600021F001014FF0807342F8043C42F8081C2F
:104470000023203A02658367704700BF4F1D02008A
:10448000094A0346906870B113F1160F806E05D08B
:10449000A0F120029A4205D8834203D2814228BF6C
:1044A00000207047002070474C47002008B5094B9A
:1044B00098600D46144600F0C5FA204685F3098839
:1044C000002163B681F31188BFF36F8F00220023B0
:1044D0001DF03DFC4C47002001B572B60B4A9069B7
:1044E00000281EBF0021916124F04DFC62B6EFF35D
:1044F0000580A0F110004FEAC0000549014409C938
:104500009847BDE801400349084700004C47002098
:104510001899020019450000044B9968D86988422F
:1045200003D003494FF080520A6070474C47002087
:1045300004ED00E02DE9F047354B364C364DE41ADA
:10454000E408A40144F00109074688463348494677
:1045500016461DF051FFAB6ADB0603D530484946CD
:104560001DF04AFFAB6A180704D52E4844F001013C
:104570001DF042FF284DAB6A990723D46FF015094F
:10458000254DAB6ADB0704D5274844F001011DF037
:1045900033FFAB6A980604D5244844F001011DF0AE
:1045A0002BFF1D4B9A6AD10624D49A6A920721D414
:1045B0000020194A936A43F0FF039362002333708B
:1045C000BDE8F08744F0010A194851461DF014FF78
:1045D000D5F83490AB6A1A06D0D5164852464946EB
:1045E0001DF017FFB8F1000FCAD0AB6A23F08003AB
:1045F000AB62C5E75B681B05DAD539464846FFF76D
:104600003FFF0028D4D080F309880220D1E700BF03
:10461000309C0200409E020000ED00E0D9B1020093
:10462000EFB1020022B2020063B2020082B20200C5
:1046300035B202004DB2020070B5234B234C244D1D
:104640002448E41AE408A40144F0010631461DF0B0
:10465000D3FEAB6A9B0103D51F4831461DF0CCFE4B
:10466000AB6ADD0104D51D4844F001011DF0C4FE14
:10467000174DAB6A180304D5194844F001011DF029
:10468000BBFEAB6A590304D5164844F001011DF086
:10469000B3FE0F4DAB6A9A0304D5134844F00101F1
:1046A0001DF0AAFEAB6ADB0304D5104844F00101FB
:1046B0001DF0A2FE064A936A6FEA03436FEA1343B2
:1046C0009362002070BD00BF309C0200409E02003B
:1046D00000ED00E0B1B20200C9B20200DCB202009B
:1046E000F6B2020014B3020039B3020053B3020061
:1046F0002DE9F0412A4B2B4C2B4DE41AE408A40180
:1047000044F0010807460E46284841461DF074FE55
:10471000AB6AD90403D5264841461DF06DFEAB6A4D
:104720001A0504D5234844F001011DF065FE1E4D15
:10473000AB6A9B0512D544F001081F4841461DF0A5
:104740005BFEA96BAB6A180408D51C4842461DF0F5
:1047500060FE1FB1AB6A23F40043AB62124DAB6A3B
:10476000590504D5164844F001011DF045FEAB6A19
:10477000DA050DD5134844F001011DF03DFE0A4A4B
:10478000936A002043F47F4393623070BDE8F08168
:10479000AB6A9B04F3D50C4844F00101EDE700BF80
:1047A000309C0200409E020000ED00E07EB302005B
:1047B00094B3020022B20200A5B30200BEB302000D
:1047C000D3B30200EEB3020082B202002DE9F0433F
:1047D000654B5E688BB00D46C6F30804002787F36F
:1047E0001188BFF36F8F02F07F43B3F17F4F0DD17C
:1047F00002F00C03082B0BD15C495D4B5D48C91AD4
:10480000C908890141F001011DF0F6FD3D4603E0B4
:10481000120701D40546012700238DF80730E31E57
:10482000092B00F28880DFE803F00575797286862F
:104830008686867D4E4A4D4EDFF82C814E48B61A4C
:10484000F608B60146F0010631461DF0D5FDD8F850
:104850002C404FF0000914F002048DF8079005D0A9
:10486000464831461DF0C8FD002407E0D8F82C303A
:10487000002B1DDA424831461DF0BEFD9DF8073081
:104880009BB92022294602A81FF030FE099B002F69
:1048900065D0C3F3080222B96FEA53236FEA4323BA
:1048A000099302A92046FFF7C3FC0BB0BDE8F083D3
:1048B000D8F82C305B00E1D5324831461DF09CFD24
:1048C000AB6933F8022C4DF602739A420AD098F87D
:1048D000283073B10DF1070201212846FFF72AFEA7
:1048E0000446CBE72968284832461DF092FD2C6823
:1048F000C4E798F829302BB10DF107010120FFF72B
:10490000F7FEEDE7B8F82A309BB2002BB6D0FFF7E0
:1049100093FEE5E70DF107020021DEE70DF1070147
:104920000020ECE71149124B1848C91AC90889013F
:1049300041F0010196E70E4A0C4B154815499B1AA8
:10494000DB0816F4F87F4FEA831318BF014643F0E3
:1049500001031148A4F110021DF06FFD84E723F458
:10496000FF7323F001039BE700ED00E0409E02008F
:10497000309C020006B4020031B4020048B40200C8
:1049800069B4020077B4020096B40200B2B4020027
:10499000EBB40200D6B4020004B50200024A536927
:1049A00043F010035361704700ED00E0EFF308801F
:1049B000EFF3098101B57246FFF708FF01BD00BFA3
:1049C000044800232021C2180133302B82F8001341
:1049D000F9D1704700E100E024F0F8FE202080F3D8
:1049E000118808484FF40261401880F30988EFF3FA
:1049F00014800221084380F31488BFF36F8FFFF700
:104A0000ABFC0000C06B0020064B9B68834207D1C3
:104A1000EFF3058323B1044A536843F08053536096
:104A20001CF09CB84C47002000ED00E0024B034A0C
:104A30000348012100F08CB8000004200000002091
:104A400010A20200826E054B203A1A60044A20210F
:104A5000C3E901121846012100F084B8B42A0020ED
:104A600000000B15F8B52A4F0E460021B14214DAAA
:104A70004468002C48D0C3B104F1FF3C14EA0C0F89
:104A80000DD0244A244B2548D21AD208920142F074
:104A900001021DF0BEFC6FF015021046F8BD1F2C80
:104AA000EFD905681CEA050FEBD1202CD5B2D0F860
:104AB00008C0026816D9B4F1004F15D8013CB4FA09
:104AC00084F4C4F11F046400072D4CEA04040DD9DA
:104AD000104A114B1248D21AD208920142F0010238
:104AE0002946D6E70824EFE73E24EDE722F01F022F
:104AF0002A4342F0100244F00104C7F89850C7F866
:104B00009C20C7F8A0406A1C01310C30AEE700BF02
:104B100000ED00E0309E0200309C02001BB5020058
:104B20003EB50200044B0522C3F89420BFF34F8F1B
:104B3000BFF36F8F704700BF00ED00E0BFF35F8FE2
:104B4000024B0022C3F89420704700BF00ED00E044
:104B500010B5034C01232278FFF784FF207010BDAD
:104B6000DF48002008B5094A00231278FFF77AFFD2
:104B700010F1160F03D0064B0022072800DD08BDF8
:104B8000C3F89800C3F8A0200130F6E7DF48002002
:104B900000ED00E014490868082810B521D8FFF797
:104BA000CDFF124C49680022904201F10C0105D161
:104BB0000F4B1870FFF7B6FF002010BDC4F8982007
:104BC00051F80C3C23F01F03134343F01003C4F8C7
:104BD0009C3051F8043C43F00103C4F8A03001328A
:104BE000E2E74FF0FF30E8E71CA2020000ED00E032
:104BF000DF480020014B1860704700BFF003002021
:104C00004FF02003EFF3118283F31288BFF36F8F0D
:104C100006490123C1F840354FF08041C1F878358D
:104C200082F31188BFF36F8F0020704700E00140CE
:104C300020B1034B800143F001031847704700BFC8
:104C4000B09F02000E4B402970B528BF40210D4C8B
:104C500046181D46B04203F1020304D1002305F8B3
:104C60001130074870BD02781209A25C03F8022CCB
:104C700010F8012B02F00F02A25C03F8012CE9E707
:104C80002349002077B5020030B503788BB0044685
:104C900007AD032B21D8DFE803F0021A1C1E1249CE
:104CA00028461FF0C9FB63780493A3780393E37845
:104CB000029323790193637900930C4AA3790595B4
:104CC0001E210B481CF066FF09480BB030BD094996
:104CD000E6E70949E4E70949E2E7094A0A212846E3
:104CE0001CF058FFDFE700BFA1AC0200C3AC02001C
:104CF00005490020A8AC0200AFAC0200B9AC02002C
:104D000062F2020010B5034C2522214600F018FB88
:104D1000204610BDE048002070B5214CBFF35B8FEA
:104D20002368BFF35B8FDA0706460D4601D50C20DA
:104D300070BD012931D8BFF35B8F54E8003F43F0C9
:104D4000020244E800210029F7D1BFF35B8F9B07E3
:104D5000EDD4144831461FF022FC134806F120011F
:104D60001FF01DFCBFF35B8F75B154E8003F43F0AB
:104D7000040344E80032002AF7D1BFF35B8F0B48ED
:104D80001BF0D8F90020D3E754E8003F23F00403D8
:104D900044E80032002AF0D0F6E71220C8E700BF4E
:104DA000C02A0020C4490020E4490020640D0020EE
:104DB0002DE9F0476A4B6B4DDFF8AC81DFF8AC9121
:104DC000ED1AED0847464FF0FF324FF0FF334846EB
:104DD0001BF0D6F9BFF35B8FD8F80040BFF35B8FB1
:104DE00014F001045AD0DFF888A1624C624E634887
:104DF000524621461EF0A3F9E8BBA901604841F0E4
:104E000001011DF0F9FA4FF01F0A4FF0FF324FF089
:104E1000FF33012000F0F2FA00F1080602210446F7
:104E2000304623F076FB3E2303704223437001217A
:104E3000304623F06EFB082303704121304623F0F7
:104E400068FB064600F801ABBAF1000F1DD0402206
:104E500000211FF056FBBFF35B8F57E8003F23F0A4
:104E6000010347E80032002AF7D1BFF35B8F2046E9
:104E700001F0E8F9A7E72022314620461FF025FB84
:104E80000028B4D04FF0000ABFE73C491FF087FB71
:104E9000203106F121001FF082FBDCE7BFF35B8FBE
:104EA000D8F80030BFF35B8F9B078CD5304933486F
:104EB0001FF00AF8011E38DAAA01324842F0010256
:104EC0001DF0A7FA4FF0FF324FF0FF33012000F042
:104ED00095FA00F1080A02210646504623F019FB14
:104EE0003E230370222343700121504623F011FB1F
:104EF000092303702121504623F00BFB03460130A8
:104F00003CBB1F221A70FF2120221FF0FAFABFF3C8
:104F10005B8F57E8003F23F0020347E80032002A86
:104F2000F7D1BFF35B8F3046A2E71249BFF35B8F27
:104F3000D8F800301048BFF35B8F13F0040F01F175
:104F400020020B4B18BF014610461EF047F90446DD
:104F5000B8E7002209491A701FF021FBD7E700BF0C
:104F6000309C0200289D0200C02A0020640D002011
:104F70003CA20200A4490020E4B50200C44900207C
:104F800088B50200B1B5020070B5067D044676B959
:104F900083681D8842F22602954245D00FD842F21E
:104FA000010295424FD042F225039D4213D02A4B75
:104FB000D3F84C3120461B69BDE87040184742F2D7
:104FC0005E039D42F3D10321083023F012FBA06859
:104FD00090F840102EE00321083023F00AFB204611
:104FE00018F07AFFBFF35B8F1C4B1A68BFF35B8F1F
:104FF000920707D50C26314642F225001FF0ABFA86
:10500000002070BDBFF35B8F53E8002F42F0010119
:1050100043E800100028F7D1BFF35B8FD307E9D432
:105020000F481BF087F8E6E70321083023F0E1FA88
:10503000A0683146FFF770FE0646204618F04CFF88
:1050400031462846DAE7DA7802F07F02DA701A7918
:1050500022F001021A71AAE780000020C02A002075
:10506000640D002010B588B00C4C0D4900220023BF
:10507000CDE9062300230A22CDE90323CDE901333C
:1050800000934FF48F62074B20461AF0C7FE064983
:10509000204608B0BDE8104023F06EBE5811002035
:1050A000E0510020B14D0000D2B5020010B50D4B0B
:1050B0000D4C0E48E41AE408A40144F003011DF06D
:1050C0009BF90B490B48CA79C2EBC202FEF7C0FC40
:1050D000014630B144F001020748BDE810401DF020
:1050E00098B910BD309C0200009E020004B6020078
:1050F000800000200EB6020014B60200F7B5164676
:105100001F46044660B92549254B2648C91AC908D7
:10511000890141F001011DF06FF96FF001041CE0FD
:1051200001A91DF024FF2049024620461FF0BCF9CA
:1051300004460028F1D1BFF35B8F1C4D2B68BFF3F1
:105140005B8F5B070CD51549154B1948C91AC9085F
:10515000890141F002011DF04FF9204603B0F0BD76
:10516000CC3D072229463846B047062810D80C4BBC
:105170000A491048C91AC908890141F001011DF006
:105180003BF90722214628461FF0BBF9EC71E4E702
:105190000723B0FBF3F0E871DFE700BF009E0200D9
:1051A000309C02002FB60200B6AC02004C01002079
:1051B00050B6020074B602002DE9F04188B09C7927
:1051C000DDF838805D791E79DF7893F802C093F8B6
:1051D00001E01B78B8F1000F0ED0CDE90638CDE91B
:1051E00004CE1346CDE90267CDE90045084A1CF01C
:1051F000D1FC08B0BDE8F081CDE905E3CDE9037C41
:105200001346CDE90156034A00941CF0C3FCF0E7B5
:1052100099B60200BDB6020001481BF0F7B800BF06
:10522000F403002038B51A4CE3799BB901F04AFD2C
:10523000E3797BB901F0B0FD044658B11549164B2E
:105240001648C91AC908890141F001011DF0D4F8B6
:10525000204638BD124DBFF35B8F2B68BFF35B8FC9
:105260009B0701D401F0C4F8BFF35B8F55E8004FF2
:1052700024F4804345E80032002AF7D1BFF35B8F66
:1052800014F48044E4D0FFF7C7FF0024E0E700BF38
:1052900080000020009E0200309C0200DEB602006A
:1052A0004C01002010B5FEF737FD044650B1064A08
:1052B000064BD21AD2089201014642F0010204487C
:1052C0001DF0A7F8204610BD009E0200309C020091
:1052D00002B7020030B4034608461A78012A13D0F8
:1052E000022A26D072B9154A02F1100452F8045B62
:1052F00041F8045BA242F9D15B8812780A704373CB
:105300001B0A837330BC70470C4A02F1100452F838
:10531000045B41F8045BA242F9D15B6812780A7021
:10532000C3F3072243731B0CC3731B0A82730374FA
:10533000E8E730BC112219461FF0D8B85EB702006A
:10534000F0B50578012D8BB004460E4617460CD0FB
:10535000022D0DD0002D44D14388254A39463046D0
:105360000BB0BDE8F0401CF015BC4368214AF5E7DE
:105370002A46411C06A81FF0B9F8E11C042208A81F
:105380001FF0B4F82A46E11D0DF11A001FF0AEF827
:105390002A4604F1090107A81FF0A8F82A4604F1DB
:1053A0000B010DF11E001FF0A1F804F10D01042204
:1053B00009A81FF09BF8BDF818300493089B0393CD
:1053C000BDF81A300293BDF81C300193BDF81E30B1
:1053D0000093094A099B394630461CF0DBFB0BB0B1
:1053E000F0BD002130460BB0BDE8F0401FF089B899
:1053F00098C8020068B1020041B7020038B50546FE
:10540000054822F0C8FF044620B10021083022F0F0
:10541000E7FF2575204638BDBC0E002070B502465A
:105420000B464FF02001EFF3118581F31288BFF393
:105430006F8F0C480021D0F83041C0F8301185F34F
:105440001188BFF36F8F24B9BDE870400120FFF7CA
:10545000D5BF012304F108002375A18122F0C0FF0C
:10546000204670BD8000002070B504460F2C0D460C
:105470001046194605D80D2C12D9BDE87040FFF72B
:10548000CDBF132C0CD10B4822F085FF044628B168
:105490000021083022F0A4FF01232375204670BDAF
:1054A00002460B460DB10448EEE7BDE8704001200E
:1054B000FFF7A4BF0C0F0020440E002070B50B4D69
:1054C00006460FCD8EB001AC0FC40FCD0FC40FCD6B
:1054D0000FC40C2E2B6823609BBF0EAB03EB86061C
:1054E000034856F8340C0EB070BD00BF1C9F02007C
:1054F00065B802000549064A83680648521AD20870
:105500009201197842F002021CF083BF309C020025
:10551000209D02006DB8020038B583681A7872B910
:10552000B3F80140204602F08DFD054640B9084B16
:105530001A8822B96FEA04506FEA1050188038BDFB
:10554000012102F087FD2846BDE838401FF0E6BC87
:1055500090470020F8B585682E78EEB9B5F801704F
:10556000384602F06FFD044660B90C4B0C4A0D48FA
:10557000D21AD2089201394642F00102BDE8F84041
:105580001CF047BFEB784372314602F063FD2046C2
:10559000BDE8F8401FF0C2BCF8BD00BF309C02005F
:1055A000209D020095B8020008B50121083023F0C3
:1055B00028F8064B064A01780648D21AD20892010A
:1055C000BDE8084042F001021CF023BF309C0200FD
:1055D000209D0200BBB8020010B50A4A0A4C81891E
:1055E0008068A41AFFF72EFBFDF7A8F9E408A401D0
:1055F00044F00204014622460448BDE810401CF075
:1056000008BF00BF309C0200209D0200DDB80200F0
:1056100073B58568B5F80160304602F013FD0446A5
:1056200068B9254B254A2648D21AD208920142F081
:105630000102314602B0BDE870401CF0EABE2B7892
:10564000CBB92A79EB7843EA0223A0F89E30AA79F5
:105650006B7943EA0223A0F8A430EB792A7A43EA73
:105660000223A0F8A63002F00BFE204602B0BDE8EF
:1056700070401FF053BC1A2BF7D1C378012BF4D123
:105680004FF4806104301FF0E3F94305EDD4B4F822
:10569000A030ADF80030B4F8A230ADF80230B4F864
:1056A000A830ADF804306946B4F8AA30ADF8063039
:1056B000204603F0EDF9D8E7309C0200209D02005F
:1056C00001B9020013B50D4C0146052294F867009C
:1056D00002F0C2FE78B90A4B586B1A8F009093F80B
:1056E0003A30ADF8042094F867008DF806300422B3
:1056F000694602F0B1FE02B010BD00BF800000207C
:105700001C9F020073B502EBC303054608461178DF
:10571000A9421AD008329A42F9D18689164B174C01
:1057200080683146E41AFFF78DFAFDF707F9E408BF
:10573000A40144F002040346ADF80040104832468C
:1057400029461CF093FE02B070BD818953788B42CC
:105750000DD9094A094B0B489B1ADB089B0143F002
:1057600001032A4602B0BDE870401CF066BE5368D3
:1057700002B0BDE870401847309C0200209D020036
:1057800047B9020025B9020010B5012104460830CE
:1057900022F037FF2146034A0078BDE81040082375
:1057A000FFF7B0BF1CA302002DE9F043074685B008
:1057B0009079414E8846144618F0D0FA864216D0A9
:1057C0003E4B3F4DA0790097ED1AED08019018F07F
:1057D000C5FAAD0145F00205CDE902062B46394870
:1057E000042269461CF05EFE05B0BDE8F083204649
:1057F00018F0BCFA344D4FF00C0909FB00504388F7
:10580000BB4211D02D4B2E4E2046F61A18F0AEFAA0
:10581000F60809FB0050B60146F0020642882B4804
:10582000334639461CF009FE204618F09FFA0C2634
:1058300006FB00504368ABB1B8F1000F12D120460F
:1058400018F094FA06FB005001214268D2E90030BA
:10585000127A00F01F06B1404009EAB103EB800064
:105860001FF0F6F8204618F081FA0C2606FB0050CF
:105870008368002BB8D0204618F078FA704305F8FA
:105880000080204618F072FA06FB0055A86805B0A3
:10589000BDE8F0431AF04EBCC94303EB8003BFF3ED
:1058A0005B8F53E8002F0A4043E800200028F8D11E
:1058B000BFF35B8FD6E700BF940E0020309C020040
:1058C000209D020069B90200C42A00209EB902008E
:1058D00038B504210446083022F093FE457801785B
:1058E00040882246FFF760FF25B10348BDE83840F5
:1058F0001AF020BC38BD00BF9801002038B5032144
:105900000446083022F07DFEA36805781978B0F8C7
:1059100001002246FFF748FF25B10348BDE83840A3
:105920001AF008BC38BD00BF980100202DE9F84FDF
:10593000514D524BDFF84891DFF848A1ED1AED08C0
:10594000D9F80C3050486FF35233C9F80C3002F0DC
:105950003BFB471C4A484FF0FF324FF0FF333946BC
:105960001BF054FB60B14949494840F68213524646
:105970001CF003F9404080F311884FF0030002DF70
:10598000444EDFF8FC8006F58C7B17B91BF02EF82F
:10599000D6E7D8F80C10C1F34531012959D90429AB
:1059A00063D198F80C30002B57D13B4800220023DC
:1059B00022F0F6FC044660B93849354840F6191320
:1059C00052461CF0DAF8404080F311884FF0030093
:1059D00002DF4FF0FF334FF0FF3258461AF0D0FB92
:1059E000D6F8303163B1A9012D4841F001011CF016
:1059F00003FDD6F8300118F06FFA0023C6F83031F5
:105A0000204622F054FDC6F830012046FFF7BCFACC
:105A10000146F0B1AA01234842F001021CF0F9FC52
:105A200021481AF087FB204618F0A0F91F4B0C22E2
:105A300002FB00301F2140882246FFF7B5FED6F852
:105A4000300118F049FA00232046C6F8303118F02A
:105A500043FA08F11408013F97E7012BF9D1D8F870
:105A60001000383802F01EFEF3E7AA01104842F099
:105A700002021CF0CEFCECE7209D0200309C0200EC
:105A800004040020D1B902001804002005BA020065
:105A90000EBA020080000020B401002072B702009C
:105AA0002BBA020046BA020098010020C42A002046
:105AB00068BA02002DE9F84F394D3A4BD0F808800A
:105AC000DFF8E4A0ED1A0026ED08B14698F80030A2
:105AD0009E4201DBBDE8F88F08EB8603B3F801B006
